:020000040800F2
:10000000303D0020D500000845180008F51600080E
:1000100000000000000000000000000000000000E0
:100020000000000000000000000000004918000867
:100030000000000000000000471800084B180008EE
:10004000E700000800000000E7000008E7000008E3
:10005000E7000008E7000008E7000008E7000008E4
:10006000000000004D040008E70000085D040008DF
:10007000E7000008E7000008E700000800000000B3
:10008000E7000008E7000008E7000008E7000008B4
:10009000E7000008E7000008E7000008E7000008A4
:1000A000E7000008E7000008E7000008E700000894
:1000B000F11C0008E700000800000000E70000084D
:1000C0000348854600F0CAF800480047FD1F0008B5
:1000D000303D00200448804704480047FEE7FEE723
:1000E000FEE7FEE7FEE7FEE7A3180008C1000008F0
:1000F00030B50B46014600202022012409E00D46C0
:10010000D5409D4205D31D469540491B2546954047
:1001100040191546521E002DF1DC30BDF0B51FB45C
:100120000646002082B005464024019100901BE065
:10013000019922460F46304600F05DF8049A059B6F
:10014000801A994110D310461946224600F076F8DD
:10015000361A8F410197224601200021009F00F0AE
:100160006DF838184D4100902046641E0028DFDCF1
:10017000019B00982946324607B0F0BDF0B51FB488
:1001800086B000200090019002900698069980B2F7
:1001900004900798090C02040014114307900027EB
:1001A000089D099806913E463C4603900398A9B2E3
:1001B0000204000C039004982D0C154348430021C1
:1001C000224600F03BF8C719714110340E46402C0E
:1001D000ECDB3846029A00F031F8009A019B801857
:1001E0000090594102980191103002904028CCDBD8
:1001F00000980BB0F0BD10B5202A04DB0846203A69
:10020000D040002110BD0B46D340D0402024A21A7C
:1002100091400843194610BDD2B201E00270401C63
:10022000491EFBD270470022F6E710B513460A4676
:1002300004461946FFF7F0FF204610BD10B5202AEE
:1002400004DB0146203A9140002010BD914020235C
:100250009C1A0346E3401943904010BD064C01250B
:10026000064E05E0E36807CC2B430C3C984710345E
:10027000B442F7D3FFF728FF9C210008BC210008F7
:1002800070B5044600688168490720D5816810264A
:100290004907002905DA8168890702D4816831435A
:1002A000816000F0B1FC05460DE000F0ADFC401BA4
:1002B000022808D9A06B3043A063E06B01210843FA
:1002C000E063084670BD206880684007EDD40020D8
:1002D00070BD10B50146406A826B50231A420AD1A4
:1002E000816B01225202114381630168CA681205C1
:1002F000920F05D020E0006B026B0846904710BDBE
:10030000827E002A18D10A68120715D58A68530719
:100310000122002B09DB4B680C24A3434B60816B4B
:10032000130299431143816306E0816B2023194333
:100330008163C16B1143C16300F048F910BD10B572
:10034000406A816B402211438163C16B04221143D7
:10035000C16300F043F910BD10B5406A00F03DF9EB
:1003600010BDF8B50446006881688907890F012926
:1003700028D10168C90702D1C168090422D5816862
:10038000052211401025012601290FD18168022282
:100390001143816021680320086000F035FC0746A6
:1003A0000CE000F031FCC01B022807D9A06B2843E9
:1003B000A063E06B3043E0630120F8BD20688068F3
:1003C000C007EED10020F8BDF8B50446002000902B
:1003D000206881688907890F012905D10168C9074B
:1003E0002CD1C168090429D48168154A102611400E
:1003F0000125002915D181682943816012481149DE
:100400000068FFF775FE00E0401E00900028FBD159
:1004100000F0FAFB07460CE000F0F6FBC01B0228D8
:1004200007D9A06B3043A063E06B2843E063012051
:10043000F8BD20680068C043C007EDD10020F8BDBA
:100440001700008040420F002C00002010B5024829
:1004500000F07CFA10BD0000A838002010B502485A
:1004600000F074FA10BD0000EC38002010B504460E
:100470000068054940181421FFF73AFE8000206407
:100480000248E06310BD0000F8FFFDBF000002401D
:1004900030B5056C0124AC40C56B6C6004686360CA
:1004A0004368102B036803D099600068C26030BDB8
:1004B0009A600068C16030BD70470000F8B5002543
:1004C000044620340095227D012A39D0012222756C
:1004D00003689E68760767D4384F4E68BE424DD099
:1004E0009E6A0F78BA4016439E620123C26A1B07B8
:1004F0009A421FD0012A1DD0022A1BD0032A19D0EC
:10050000042A17D0052A15D0062A13D0072A11D09D
:1005100002688B6856697607760FB3420AD0536932
:10052000DB08DB005361006842690B7A5B075B0FF5
:100530001A4342610A68102A04D0112A02D038E016
:100540000220F8BD1E488368102A07D001229205B8
:10055000134383600868102803D02AE00122D205E3
:10056000F6E7194817490068FFF7C2FD0A2148431A
:1005700000E0401E00900028FBD11AE0986A0E7837
:10058000B240904398620968102901D0112910D116
:100590000B488268102904D0012189058A438260B2
:1005A00007E00121C905F9E7816B2022114381632E
:1005B0000125002020752846F8BD0000011000002C
:1005C0000027014040420F002C00002010B50920F8
:1005D0002021C00600F00CFB10BD704770470000E2
:1005E000F8B500260446002805D0A06B2546203526
:1005F000002802D007E00120F8BD0020E063287544
:10060000204600F0A9F8A06B1022C006002870DB7D
:100610002068816849076CD4A16B130199430223B8
:100620001943A16381688907890F012905D10168F0
:10063000C9070FD1C16809040CD4C16818239943B4
:10064000A3681943C160206801696368890089084B
:10065000194301612068C1683D4B1940C160207E8B
:10066000617E8003C9030843A17E4B031843A36A3C
:10067000012B02D001231B0300E000231843E36891
:1006800018432369022B09D0002318432B79E57EF8
:100690005B0018430123012D02D00AE00423F4E794
:1006A000002927D0A16B20252943A163E16B1943C1
:1006B000E163E1690D46FF3DC23D02D0256A294351
:1006C00008432168CD680543CD600125E16A2D0707
:1006D000A94213D0012911D002290FD003290DD02E
:1006E00004290BD0052909D0062907D0072905D0F0
:1006F00010E028E0012109040843DAE721684D6988
:10070000ED08ED004D6121684D69A78D7F077F0FD2
:100710003D434D612168C9680E4D2940814207D192
:100720000020E063A06B80088000401CA06308E00C
:10073000A06B022188431043A063E06B1843E06381
:1007400001263046F8BDA06B1043A063F8E7000017
:100750001902FEFFE7FF3F8338B5054600681149DF
:1007600088421ED110498A69401502438A6189690D
:100770000F4C014000910D492160002161608022F1
:10078000E260A1602061800060612020E161A061E1
:10079000204600F029F9002801D0FFF78DFE2C63D8
:1007A000656238BD0024014000100240080002408C
:1007B000A8380020F7B50446006800258068400787
:1007C0003DD426462036307D01280AD001273775D2
:1007D000607E012807D02046FFF7F6FD050002D015
:1007E0002EE00220FEBDA06B16490840FF2101311A
:1007F0000843A0630020E0633075216B12488862D3
:10080000216B1248C862216B1148086321681C20C3
:100810000860206841681022114341602068C16867
:100820003943C1602168206B4031029B019A00F07E
:1008300005F92068816804221143816000E00225E7
:100840002846FEBDFEF1FFFFD30200085903000851
:100850003F030008F8B5064604462036307D0128DF
:1008600007D0012737752046FFF70AFD050002D0A3
:1008700024E00220F8BD2068C16849084900C16031
:10088000206B00F01FF8050003D0A06B4021084347
:10089000A06320684168102291434160002D2046EA
:1008A00002D0FFF75EFD09E0FFF75BFD050005D113
:1008B000A06BFF21013188433843A06300203075CD
:1008C0002846F8BD30B5014620314B780022022B76
:1008D00004D0042383630A70012030BD03681C68C0
:1008E0000E25AC431C6003681C68640864001C602F
:1008F0000123056C1C46C06BAC4044604B700A7011
:10090000002030BD70B50024014620314A78022A0B
:1009100003D004218163012416E0026813680E25C8
:10092000AB431360026813685B085B00136001222D
:10093000056C1346AB40C56B6B604A7000220A70B1
:10094000416B002900D08847204670BDF0B4C16BD0
:100950000D6801680C680422066C1346B3402B42F4
:100960000DD063070BD50B689B0602D40B6893432D
:100970000B60016C8A40C16B4A60C16A19E00227B2
:10098000B74002462F4001232032002F15D0A70781
:1009900013D50C68A40604D40C680A25AC430C607B
:1009A0005370036C02219940C36B59600021117090
:1009B000816A002916D0F0BC08470827B7402F42AB
:1009C00010D024070ED50C680E25AC430C60046CC7
:1009D0001946A140C46B616083635370002111709C
:1009E000016BE6E7F0BC704770B5040021D002212E
:1009F0002046203005464170226811680E48A368E1
:100A00000140606826691843E3683343184363690B
:100A10001843A3691843E36918430843106020464C
:100A2000FFF724FD0021A1630120687029700846AA
:100A300070BD012070BD00000FC0FFFFF8B5044677
:100A40008C46203001780025012909D00126067046
:100A500041780027012905D0077002252846F8BDF6
:100A60000220F8BD02214170A7632068016849088F
:100A70004900016061462046FFF70AFDE06A002850
:100A80002068016802D00E22114306E00A221143B9
:100A900001602068016804229143016020680168B8
:100AA00031430160DAE70000F8B500238DE001244E
:100AB0009C40A44622407DD04C68022C01D0122CD0
:100AC0000CD1DC08A40027183C6A5D07ED0E0F2648
:100AD000AE40B4430E69AE4026433E6205685E00F8
:100AE0000324B4400F79A543BF07BF0FB7402F437E
:100AF00007604D68012D05D0022D03D0112D01D0C6
:100B0000122D0ED18568CF68A543B7402F4387606B
:100B100047686546AF430D79ED06ED0F9D403D43B7
:100B20004560C568A5438C68B4402C43C4604C68DC
:100B3000E40049D5284CA56901263543A561A4697F
:100B40009D0834400094254CAD002F19BC689D07CA
:100B50002E0F0F25B540AC430925ED06A84201D163
:100B600000250FE01E4DA84201D101250AE01D4DD0
:100B7000A84201D1022505E01B4DA84201D1032561
:100B800000E00525B5402543BD60184C25684E683A
:100B90009543F60300D51543256065684E68954377
:100BA000B60300D515436560A5684E689543F60207
:100BB00002D500E008E01543A560E5684E6895435E
:100BC000B60200D51543E5605B1C0A681446DC409C
:100BD00000D06CE7F8BD00000010024000000140AA
:100BE0000004004800080048000C004800040140D0
:100BF00042690A4200D0090481617047002A01D08D
:100C000081617047816270470148806870470000C9
:100C100020000020024881680278891881607047AE
:100C20002000002010B50648016810221143016021
:100C3000002000F007F800F027F8002010BD0000A9
:100C40000020024070B504460D4D7D202978C0007B
:100C5000FFF74EFA01460B480068FFF749FA00F02B
:100C6000CBFA002809D1042C07D200222146401ECD
:100C700000F02AF800206C6070BD012070BD0000FB
:100C8000200000202C00002008B5084881690122BE
:100C900011438161816911400091C26901040A43D5
:100CA000C261C0690840009008BD00000010024009
:100CB000002805DBC106C90E0120884001490860F3
:100CC0007047000000E100E010B501F045F810BDEC
:100CD000F8B50F46060059D03A4D2868C007C00F36
:100CE000B84209D228684008400038432860286884
:100CF000C007C00FB84249D13068334C81070CD5CA
:100D0000400704D5606807210902084360606068F5
:100D1000F0218843B168084360603078C00726D06E
:100D2000706801280ED0216802280ED0890700299A
:100D30002CDA61688908890001436160FFF764FF6C
:100D400000900DE021688903F1E78901EFE7FFF7E3
:100D50005BFF0099411A1D48814201D90320F8BD6B
:100D600060680C210840716889008842EFD12868CA
:100D7000C007C00FB8420BD928684008400038436C
:100D800028602868C007C00FB84201D00120F8BD14
:100D90003078400706D56068072109028843F1686A
:100DA0000843606000F028F86168094A0906090FE5
:100DB000515CC840074908600020FFF743FF00204E
:100DC000F8BD00000020024000100240881300001F
:100DD000842100082C000020044805490068496867
:100DE000044A4905490F515CC84070472C00002057
:100DF000001002409421000810B513A30FCB88B057
:100E00006C460FC414A30FCB0FC417494B680C20BA
:100E10001A4602401548042A13D0082A11D19A0212
:100E2000120F6C46A45CC96A04AA0907090F525C38
:100E3000D903890F00231946FFF770F9214600F006
:100E400073FF08B010BD000002030405060708097F
:100E50000A0B0C0D0E0F1010010203040506070803
:100E6000090A0B0C0D0E0F100010024000127A0040
:100E7000FEB5040071D02078DC4DC00749D0686809
:100E80000007800F012820D068680007800F022823
:100E900004D16868C003800F022816D00120626860
:100EA0000004012A18D08100002A01D0052A17D099
:100EB0002A6882432A60286888432860606800287E
:100EC0001BD0FFF7A1FE064613E02868800320D55B
:100ED00060680028CED01CE0296801432960EDE756
:100EE0002A680A432A60F7E7FFF78EFE801B642812
:100EF00070D828688003F7D50BE0FFF785FE06461B
:100F000004E0FFF781FE801B6428F1D82868800385
:100F1000F7D420780126800700283EDA68680007A9
:100F2000800F13D068680007800F022804D168681A
:100F3000C003800F012809D0E068002828681DD070
:100F400030432860FFF760FE07460CE02868800702
:100F50000CD5E068012800D108E043E1FFF754FE1A
:100F6000C01B0228C4D828688007F7D52868F82154
:100F700088432169C900084328600EE0400840000A
:100F80002860FFF741FE074604E0FFF73DFEC01B67
:100F90000228ADD828688007F7D42078000722D52A
:100FA000E0690028686A0ED030436862FFF72CFEC3
:100FB000074604E0FFF728FEC01B022898D8686A9D
:100FC0008007F7D50FE0400840006862FFF71CFE7D
:100FD000074605E09DE0FFF717FEC01B022887D8F3
:100FE000686A8007F7D4207804274007002860DA71
:100FF00000200190E869C00008D4E969B8060143FF
:10100000E961E96901400120009101907848016897
:10101000C90511D40168821511430160FFF7F4FD81
:10102000009005E0FFF7F0FD0099401A642870D8A1
:101030006F480068C005F5D5A06801280AD00028CF
:1010400001D0052810D0286A400840002862286A8C
:10105000B84301E0286A30432862A068002812D013
:10106000FFF7D2FD00900AE0286A38432862F1E7D2
:10107000FFF7CAFD0099411A5E48814249D8286AA3
:101080008007F5D50DE0FFF7BFFD009006E0FFF704
:10109000BBFD0099411A574881423AD8286A800717
:1010A000F5D40198002804D0E86901210907884394
:1010B000E8612078C00635D5606901280CD0401D54
:1010C000686B23D038436863686B400840006863EE
:1010D000FFF79AFD064622E0686B38436863686B49
:1010E00030436863FFF790FD064604E0FFF78CFD90
:1010F000801B02285BD8686B8007F7D5686BF821E6
:101100008843A169C900084368630BE0B84368637A
:10111000F4E74CE0FFF778FD801B022847D8686BA6
:101120008007F7D4206A00285ED069680907890F14
:10113000022942D0012636060228286805D0B0438D
:101140002860FFF761FD044633E0B0432860FFF7F5
:101150005BFD074604E0FFF757FDC01B022826D8B9
:1011600028688001F7D4E86AE16A000900010843B1
:10117000E862616AA06A084369687B22D2039143EE
:1011800008436860286830432860FFF73DFD044647
:1011900004E0FFF739FD001B022808D82868800109
:1011A000F7D521E0FFF730FD001B022801D903200D
:1011B000FEBD28688001F5D416E00128F8D06868E3
:1011C000E96A0322D203636A02409A420AD10907FC
:1011D000E26A090F914205D10F2189040840A16AF2
:1011E000884201D00120FEBD0020FEBD001002405B
:1011F0000070004088130000094910B5401E884265
:1012000001D9012010BD074C60610321081F00F0C7
:10121000A3FD0020A06107202061002010BD000078
:10122000FFFFFF0000E000E0F0B502462032137F30
:10123000012B1ED0012515770223537706687468A9
:10124000B3687027BC430F682743776000680A4C77
:10125000A04205D0094CA04202D0094CA04204D1C2
:1012600080244968A3431943816055770020107793
:10127000F0BD0220F0BD0000002C01400004004041
:101280000040014070B5040005D025462035687F38
:10129000002802D006E0012070BD002028772046FB
:1012A00000F00AF802206877211D206800F0FAFAA1
:1012B00001206877002070BD08B5006805498842A4
:1012C00007D10548C26902210A43C261C0690840CA
:1012D000009008BD000400400010024002220146B8
:1012E00020314A770068826801235207520F062A8C
:1012F00002D002681A4302604B7700207047F8B5AD
:10130000054604462035287F012817D001262E7770
:1013100002206877226890687727FF23B8431B0272
:10132000984390600A68502A31D00EDC202A4BD0B6
:1013300006DC002A48D0102A3AD145E00220F8BD48
:10134000302A41D0402A33D136E0602A27D0702A93
:1013500012D001200003121A2AD0824228D1CB6871
:101360004A688968206800F0E1FA206881680122F3
:101370009203114381601BE0CB684A68896820684A
:1013800000F0D4FA216888683843886010E0CA68A1
:101390004968206800F0DDFA5021206806E0CA683C
:1013A0004968206800F0E6FA6021206800F0C9FA78
:1013B0006E7700202877F8BDCA684968206800F079
:1013C000C8FA40212068F1E711462068EEE770472F
:1013D000F8B502680446D069116893684C4D06461A
:1013E0002E402025002E68D0DE07F60FFF2721377C
:1013F0000F40374375D0C70706D0CF0504D5012766
:101400001762E26F3A43E267820708D5DA0706D02F
:10141000276802223A62E26F04273A43E2674207F2
:1014200008D5DA0706D0236804221A62E26F022385
:101430001A43E267020709D50A462A40324305D01B
:10144000236808221A62E36F1343E367020508D595
:101450004A0106D501222368D2021A62E26F2A43AA
:10146000E267E26F002A30D0800606D5880604D5F0
:10147000216E002901D020468847E06F21688968E5
:10148000490602D42821084224D0204600F024FB3B
:1014900020688168490619D581684022914381609E
:1014A000E06E002812D01B494163E06EFFF72AFA74
:1014B00000280AD0E06E416B06E0830611D58B064A
:1014C0000FD5216E12E020468847F8BD2046FFF771
:1014D0007EFFF8BD2046FFF77AFF0020E067F8BDE9
:1014E000FFE7030605D50B0603D5616E0029EAD197
:1014F000F5E74006F3D54806F1D5116820464023AC
:101500009943116065670021616600F0F2F8E6E733
:101510000F080000C51A000810B5040003D0606F62
:10152000002802D007E0012010BD002170200155E5
:10153000204600F027F824206067206801684908E9
:1015400049000160204600F0D7FA0128ECD0606A1B
:10155000002802D0204600F020FA206841680122CD
:10156000D2029143416020688168082291438160E2
:1015700020680168012211430160204600F072FAE0
:1015800010BD000070B586B0064614216846FEF70F
:101590004AFE2049306888423AD11F49CA69012071
:1015A00040040243CA61CA69024005924A69024383
:1015B0004A6149690025014005910C2000900220F4
:1015C00001900320039001200490092002956946B0
:1015D000C006FFF769FA1148114C21C42560A560C7
:1015E0008020E56060602020656120610C48083C37
:1015F000FFF7FAF9002801D0FEF75EFFF46600223B
:1016000011461C206662FFF75FFB1C20FFF750FBB2
:1016100006B070BD00440040001002405800024077
:10162000EC380020FFB50446406F83B017460D46E6
:1016300020285CD1002D0AD0002F08D0A168C0015D
:10164000814207D12069002804D1E80702D0012097
:1016500007B0F0BD204660300290007C012846D0E3
:101660000298012101740020E06721206067FFF7E4
:10167000CBFA264640360190378277820120A16856
:101680000003814202D12069002802D02F460025A4
:1016900011E000270FE000228021204600F0DAFA56
:1016A000002815D1002F15D02168387808857F1CB7
:1016B000708A401E7082708A019B002806980090F4
:1016C000E9D100224021204600F0C4FA002808D0C9
:1016D0000320BDE728882168C005C00D0885AD1C22
:1016E000E6E720206067029900200874B0E7022036
:1016F000AEE77047FEE700000EB5002113480091E9
:1017000001910291104A4160026081600122082328
:101710000C300EC0017041708170C170C0214160F9
:1017200091028160C1180A7102611838FEF758FFF2
:1017300010200090000201900720029069460348A3
:10174000FEF7BCFE0EBD000000240140A8370020BB
:1017500030B587B014216846FEF765FD164842692A
:101760000121C9040A43426142690A400592426963
:1017700089100A434261406909250840ED06059039
:10178000002220212846FFF739FA012040030024D7
:1017900000900194694602940848FFF785F92020DB
:1017A0000090012001900294694603942846FFF7B7
:1017B0007BF907B030BD000000100240000800486F
:1017C00010B586B00024009411480194029403944B
:1017D00004940E49059401604B21890184604160A5
:1017E000046164218461C160FFF74CFD01200003A6
:1017F000009069460648FFF782FD202004A911C128
:1018000003480839FFF710FD06B010BD0004004082
:10181000E837002010B50A4808490160E121490273
:10182000416000218160C16001618161C1610C2260
:10183000016242614162FFF76FFE10BD004400404B
:101840002838002070477047704710B5FFF7E2F95D
:1018500010BD30B591B030216846FEF7E4FC00249D
:1018600012200F94009001200D94039005901020F9
:101870000E9406900490C0020990400102250A903F
:101880000C9408950B946846FFF7F2FA07200C9029
:101890000E9401210D950F940CA8FFF719FA11B0C1
:1018A00030BD7047F0B502681A4B1B4C984201D00E
:1018B000A04203D17025AA434D682A43174D184E04
:1018C000184F98420AD0A04208D0174CA04205D029
:1018D000A84203D0B04201D0B84205D11446032239
:1018E00012029443CA6822438024A2434C692243D3
:1018F00002608A68C2620A688262984205D0A84281
:1019000003D0B04201D0B84201D10969016301217D
:101910004161F0BD002C0140000400400040014046
:1019200000440140004801400020004030B5846878
:10193000FF252D021B021343AC430B43234383605B
:1019400030BD826870239A430A4307210A438260AC
:10195000704730B5036A046A6408640004628469ED
:10196000F025AC43120122430A24A3430B438261B6
:10197000036230BD30B5036A1024A3430362846957
:10198000036A0F252D031203AC432243A024A34373
:10199000090119438261016230BD10B5818CC9070C
:1019A00007D001684A6801235B049A43836A1A439B
:1019B0004A60818C890707D501684A6801231B04A6
:1019C0009A43C36A1A434A60818C490707D5016864
:1019D0004A6801239B049A43036B1A434A60818C33
:1019E000090707D501684A680123DB039A43436B63
:1019F0001A434A60818CC90607D5026891680123A1
:101A00001B039943836B19439160818C890607D529
:101A100001688A6801235B039A43C36B1A438A6097
:101A2000818C490612D503685A6801210905046CA6
:101A30008A4322435A60026C8A4207D10268516885
:101A400003235B059943436C19435160818C09065C
:101A500007D501684A680123DB04806C9A4302437E
:101A60004A6010BDF8B500260446C667FFF7CCF8FB
:101A7000054620680068124F000709D501212B4652
:101A8000002249052046009700F0E4F800280DD117
:101A90002068006840070BD501212B4600228905EC
:101AA0002046009700F0D6F8002801D00320F8BDAA
:101AB00020206067A067603426740020F8BD000015
:101AC000FFFFFF0110B5406A0022014640314A8302
:101AD0004A82FFF77CFC10BD01680A68FF232133AE
:101AE0009A430A6001688A68520852008A6020217D
:101AF000816700210166704770B5044680682169DE
:101B0000E2690843616900251143226808431168AE
:101B1000474B1940014311602168486803221203B2
:101B20009043E26810434860A169206A2268084334
:101B300091680B231B029943014391603D49206842
:101B4000884210D13C48006B8007800F17D00128D5
:101B500005D0022805D0032810D102200FE0042070
:101B60000DE008200BE03549884205D03449884211
:101B700002D03449884201D1002000E01020012227
:101B8000E169D203304E914228D1002806D00228C4
:101B900007D0042817D0082844D11AE0FFF71CF911
:101BA00013E06168294A48088018FEF7A1FA80B25C
:101BB00001461039B14235D82349491C014000077C
:101BC000400F084321E0FFF717F9616840004A0819
:101BD000EAE76168012248081204E5E7002806D018
:101BE000022807D0042813D008281BD116E0FFF7DD
:101BF000F3F80FE06168164A480811E0FEF778FA3A
:101C000080B201461039B1420CD82168C8600AE0A0
:101C1000FFF7F2F861684A081018EFE761684808B2
:101C20008018EBE70125002020666066284670BD1D
:101C3000F369FFEF0038014000100240004400400B
:101C400000480040004C0040EFFF00000024F4007A
:101C500000127A00FFB581B005460F460446603594
:101C60000A9E38E0701C36D0FEF7CEFF0499401A69
:101C7000B04221D8002E1FD02068016849072AD51C
:101C8000C069C043000526D401202168C002086253
:101C900020680168FF22A1329143016020688168B9
:101CA00049084900816020206067A067E067002044
:101CB0002874032005B0F0BD20680168FF22A1321E
:101CC00091430160206881684908490081602020B3
:101CD0006067A067EBE72068C1693846884305D094
:101CE000002103988142BDD00020E3E70121F8E7FD
:101CF00010B50248FFF76CFB10BD0000283800202B
:101D00000FB410B504A9074B02AA039800F056F8C7
:101D1000044602A9002000F06BF9204610BC08BC64
:101D200004B01847F11F0008F8B5040C8BB2264622
:101D300082B25E430D0C1046370C584336048019AE
:101D40000021794116466E43370C360480197941DB
:101D500026466E438919F8BD8307FF22DB0E9A40A1
:101D60008907090E9940002808DB830809489B0071
:101D70001B18186890430843186070470007000F4D
:101D80000838830804489B001B18D869904308430F
:101D9000D861704700E400E000ED00E002E008C810
:101DA000121F08C1002AFAD170477047002001E0D5
:101DB00001C1121F002AFBD170470000FFB58FB090
:101DC0000F460446002606E025280AD0129A1199EB
:101DD0009047641C761C20780028F5D1304613B05B
:101DE000F0BD00250121814A009500E00543641CF7
:101DF00023780846203B98401042F7D120782E28BF
:101E000015D1042005436078641C2A280AD101CF2B
:101E1000641C00900BE000990A22514330394018AD
:101E2000641C00902078014630390929F3D92078C4
:101E30006C280ED004DC4C2813D06A2812D104E0A0
:101E400074280ED07A280DD10BE0012040050543FF
:101E500007E00121090562780D43824201D16D1826
:101E6000641C641C2078692843D006DC0028B5D0A7
:101E700063280BD0642804D13BE073280FD0752869
:101E80005DD0129A11999047761CADE0387869467A
:101E900008720020487202A80190012003E038680F
:101EA00001900020C0433F1D69070CD5002500E0CC
:101EB0006D1C00998D420FDA8542F9DB0199495D6D
:101EC0000029F5D108E0002500E06D1C8542FCDB0F
:101ED0000199495D0029F8D1761907E00198019927
:101EE0000078491C0191129A119990476D1EF5D204
:101EF0007AE0002001900A216802400F0E9102282A
:101F000009D001CFC11700290ADA0A460021404250
:101F100091412D2207E0FF1DFF08FF0003CFF2E7EC
:101F20002A0504D52B226B461A72012203E0EA0728
:101F30000ED02022F7E70C920BAA0B9218E00A2091
:101F40000E9000216802400F0191022802D001CFBB
:101F50000022F0E7FF1DFF08FF0003CFF8E7019B19
:101F60000E9AFEF7DBF80B9B5B1E30320B931A7058
:101F700002460A43F3D10B9803A9081A20300190B6
:101F8000680701D40120009000990198814203DD87
:101F900008460199401A00E000200025009006E064
:101FA00002A8129A405D119990476D1C761C0C98FE
:101FB0008542F5DB04E0129A302011999047761C97
:101FC0000099481E00900029F5DC08E00B980B9959
:101FD0000078491C0B91129A11999047761C01992F
:101FE000481E01900029F1DC641CF4E60928010078
:101FF0000A68531C0B60107070470000FEB5FEF7B6
:1020000011FEFFF726FCFFF7A3FB364841690122CA
:10201000114341614069104000220090114609209F
:10202000FEF752FE0920FEF743FE002211460B2068
:10203000FEF74AFE0B20FEF73BFEFFF75DFBFFF7C6
:10204000BFFBFFF7E7FB2848FFF748F92648274A78
:1020500027494038FEF7AEFB264C3FE0264D0026D0
:102060002088401C00B220806188491E61800421C4
:10207000615E8842E169A0690191009004D100216C
:1020800020460C300DC803E0002163692269A06876
:1020900000F038F80021615E49006852608800282D
:1020A000DED111484038FEF7D5FB00960196104E60
:1020B0000025AF00F25911A16846FFF721FE0A483A
:1020C0006423052269464030FFF7ACFAF059002836
:1020D00007D06D1C0548ADB28542EAD36088002860
:1020E000BCD1FEBD00100240E8370020FC08000013
:1020F000300000200000002020240020256C750AFC
:1021000000000000FEB5154601221E4600230746CA
:102110000C46019300922AE0E843C00711D1099BC5
:10212000089A01990098FDF7F9FF104619463A46BA
:102130002346FEF723F8099B089AFDF7EFFF01936A
:10214000009238462146099B089AFDF7E7FF1046A2
:1021500019463A462346FEF711F8099B089AFDF7FF
:10216000DDFFF0076D08054317461C467608284634
:102170003043D1D1099B089A01990098FDF7CEFF11
:102180001046FEBD00000000000000000102030434
:10219000060708090000000001020304BC21000832
:1021A00000000020300000009C1D0008EC21000809
:1021B00030000020003D0000AC1D0008FFFFC409F6
:1021C0000A00000091CB0100E7890200FB4B099F48
:1021D00000000000833394EE0000000001000000C6
:0C21E000040000000000000000127A0063
:04000005080000C12E
:00000001FF
